{
  "_format": "hh-sol-artifact-1",
  "contractName": "OmnityPortContract",
  "sourceName": "contracts/OmnityPort.sol",
  "abi": [
    {
      "inputs": [
        {
          "internalType": "address",
          "name": "target",
          "type": "address"
        }
      ],
      "name": "AddressEmptyCode",
      "type": "error"
    },
    {
      "inputs": [
        {
          "internalType": "address",
          "name": "implementation",
          "type": "address"
        }
      ],
      "name": "ERC1967InvalidImplementation",
      "type": "error"
    },
    {
      "inputs": [],
      "name": "ERC1967NonPayable",
      "type": "error"
    },
    {
      "inputs": [],
      "name": "FailedInnerCall",
      "type": "error"
    },
    {
      "inputs": [],
      "name": "InvalidInitialization",
      "type": "error"
    },
    {
      "inputs": [],
      "name": "NotInitializing",
      "type": "error"
    },
    {
      "inputs": [
        {
          "internalType": "address",
          "name": "owner",
          "type": "address"
        }
      ],
      "name": "OwnableInvalidOwner",
      "type": "error"
    },
    {
      "inputs": [
        {
          "internalType": "address",
          "name": "account",
          "type": "address"
        }
      ],
      "name": "OwnableUnauthorizedAccount",
      "type": "error"
    },
    {
      "inputs": [],
      "name": "UUPSUnauthorizedCallContext",
      "type": "error"
    },
    {
      "inputs": [
        {
          "internalType": "bytes32",
          "name": "slot",
          "type": "bytes32"
        }
      ],
      "name": "UUPSUnsupportedProxiableUUID",
      "type": "error"
    },
    {
      "anonymous": false,
      "inputs": [
        {
          "indexed": false,
          "internalType": "address",
          "name": "to",
          "type": "address"
        },
        {
          "indexed": false,
          "internalType": "uint256",
          "name": "amount",
          "type": "uint256"
        }
      ],
      "name": "BalanceCollected",
      "type": "event"
    },
    {
      "anonymous": false,
      "inputs": [
        {
          "indexed": false,
          "internalType": "uint256",
          "name": "seq",
          "type": "uint256"
        }
      ],
      "name": "DirectiveExecuted",
      "type": "event"
    },
    {
      "anonymous": false,
      "inputs": [
        {
          "indexed": false,
          "internalType": "uint64",
          "name": "version",
          "type": "uint64"
        }
      ],
      "name": "Initialized",
      "type": "event"
    },
    {
      "anonymous": false,
      "inputs": [
        {
          "indexed": true,
          "internalType": "address",
          "name": "previousOwner",
          "type": "address"
        },
        {
          "indexed": true,
          "internalType": "address",
          "name": "newOwner",
          "type": "address"
        }
      ],
      "name": "OwnershipTransferred",
      "type": "event"
    },
    {
      "anonymous": false,
      "inputs": [
        {
          "indexed": false,
          "internalType": "string",
          "name": "tokenId",
          "type": "string"
        },
        {
          "indexed": false,
          "internalType": "address",
          "name": "sender",
          "type": "address"
        },
        {
          "indexed": false,
          "internalType": "address",
          "name": "receiver",
          "type": "address"
        }
      ],
      "name": "RunesMintRequested",
      "type": "event"
    },
    {
      "anonymous": false,
      "inputs": [
        {
          "indexed": false,
          "internalType": "string",
          "name": "tokenId",
          "type": "string"
        },
        {
          "indexed": false,
          "internalType": "address",
          "name": "tokenAddress",
          "type": "address"
        }
      ],
      "name": "TokenAdded",
      "type": "event"
    },
    {
      "anonymous": false,
      "inputs": [
        {
          "indexed": false,
          "internalType": "string",
          "name": "tokenId",
          "type": "string"
        },
        {
          "indexed": false,
          "internalType": "address",
          "name": "sender",
          "type": "address"
        },
        {
          "indexed": false,
          "internalType": "string",
          "name": "receiver",
          "type": "string"
        },
        {
          "indexed": false,
          "internalType": "uint256",
          "name": "amount",
          "type": "uint256"
        }
      ],
      "name": "TokenBurned",
      "type": "event"
    },
    {
      "anonymous": false,
      "inputs": [
        {
          "indexed": false,
          "internalType": "string",
          "name": "tokenId",
          "type": "string"
        },
        {
          "indexed": false,
          "internalType": "address",
          "name": "receiver",
          "type": "address"
        },
        {
          "indexed": false,
          "internalType": "uint256",
          "name": "amount",
          "type": "uint256"
        },
        {
          "indexed": false,
          "internalType": "string",
          "name": "ticketId",
          "type": "string"
        },
        {
          "indexed": false,
          "internalType": "string",
          "name": "memo",
          "type": "string"
        }
      ],
      "name": "TokenMinted",
      "type": "event"
    },
    {
      "anonymous": false,
      "inputs": [
        {
          "indexed": false,
          "internalType": "string",
          "name": "dstChainId",
          "type": "string"
        },
        {
          "indexed": false,
          "internalType": "string",
          "name": "tokenId",
          "type": "string"
        },
        {
          "indexed": false,
          "internalType": "address",
          "name": "sender",
          "type": "address"
        },
        {
          "indexed": false,
          "internalType": "string",
          "name": "receiver",
          "type": "string"
        },
        {
          "indexed": false,
          "internalType": "uint256",
          "name": "amount",
          "type": "uint256"
        },
        {
          "indexed": false,
          "internalType": "string",
          "name": "memo",
          "type": "string"
        }
      ],
      "name": "TokenTransportRequested",
      "type": "event"
    },
    {
      "anonymous": false,
      "inputs": [
        {
          "indexed": true,
          "internalType": "address",
          "name": "implementation",
          "type": "address"
        }
      ],
      "name": "Upgraded",
      "type": "event"
    },
    {
      "inputs": [],
      "name": "UPGRADE_INTERFACE_VERSION",
      "outputs": [
        {
          "internalType": "string",
          "name": "",
          "type": "string"
        }
      ],
      "stateMutability": "view",
      "type": "function"
    },
    {
      "inputs": [
        {
          "internalType": "string",
          "name": "tokenId",
          "type": "string"
        },
        {
          "internalType": "uint256",
          "name": "amount",
          "type": "uint256"
        }
      ],
      "name": "burnToken",
      "outputs": [],
      "stateMutability": "payable",
      "type": "function"
    },
    {
      "inputs": [
        {
          "internalType": "string",
          "name": "target_chain_id",
          "type": "string"
        }
      ],
      "name": "calculateFee",
      "outputs": [
        {
          "internalType": "uint128",
          "name": "",
          "type": "uint128"
        }
      ],
      "stateMutability": "view",
      "type": "function"
    },
    {
      "inputs": [],
      "name": "chainKeyAddress",
      "outputs": [
        {
          "internalType": "address",
          "name": "",
          "type": "address"
        }
      ],
      "stateMutability": "view",
      "type": "function"
    },
    {
      "inputs": [
        {
          "internalType": "address",
          "name": "newChainKeyAddress",
          "type": "address"
        }
      ],
      "name": "changeChainKeyAddress",
      "outputs": [],
      "stateMutability": "nonpayable",
      "type": "function"
    },
    {
      "inputs": [
        {
          "internalType": "address",
          "name": "to_",
          "type": "address"
        }
      ],
      "name": "collectFee",
      "outputs": [],
      "stateMutability": "nonpayable",
      "type": "function"
    },
    {
      "inputs": [],
      "name": "feeTokenFactor",
      "outputs": [
        {
          "internalType": "uint128",
          "name": "",
          "type": "uint128"
        }
      ],
      "stateMutability": "view",
      "type": "function"
    },
    {
      "inputs": [
        {
          "internalType": "string[]",
          "name": "ticketIds",
          "type": "string[]"
        }
      ],
      "name": "fillHistoryTickets",
      "outputs": [],
      "stateMutability": "nonpayable",
      "type": "function"
    },
    {
      "inputs": [
        {
          "internalType": "uint256",
          "name": "",
          "type": "uint256"
        }
      ],
      "name": "handledDirectives",
      "outputs": [
        {
          "internalType": "bool",
          "name": "",
          "type": "bool"
        }
      ],
      "stateMutability": "view",
      "type": "function"
    },
    {
      "inputs": [
        {
          "internalType": "string",
          "name": "",
          "type": "string"
        }
      ],
      "name": "handledTickets",
      "outputs": [
        {
          "internalType": "bool",
          "name": "",
          "type": "bool"
        }
      ],
      "stateMutability": "view",
      "type": "function"
    },
    {
      "inputs": [
        {
          "internalType": "address",
          "name": "_chainKeyAddress",
          "type": "address"
        }
      ],
      "name": "initialize",
      "outputs": [],
      "stateMutability": "nonpayable",
      "type": "function"
    },
    {
      "inputs": [],
      "name": "isActive",
      "outputs": [
        {
          "internalType": "bool",
          "name": "",
          "type": "bool"
        }
      ],
      "stateMutability": "view",
      "type": "function"
    },
    {
      "inputs": [],
      "name": "lastExecutedSequence",
      "outputs": [
        {
          "internalType": "uint256",
          "name": "",
          "type": "uint256"
        }
      ],
      "stateMutability": "view",
      "type": "function"
    },
    {
      "inputs": [
        {
          "internalType": "string",
          "name": "tokenId",
          "type": "string"
        },
        {
          "internalType": "address",
          "name": "receiver",
          "type": "address"
        }
      ],
      "name": "mintRunes",
      "outputs": [],
      "stateMutability": "payable",
      "type": "function"
    },
    {
      "inputs": [],
      "name": "owner",
      "outputs": [
        {
          "internalType": "address",
          "name": "",
          "type": "address"
        }
      ],
      "stateMutability": "view",
      "type": "function"
    },
    {
      "inputs": [
        {
          "internalType": "bytes",
          "name": "directiveBytes",
          "type": "bytes"
        }
      ],
      "name": "privilegedExecuteDirective",
      "outputs": [],
      "stateMutability": "nonpayable",
      "type": "function"
    },
    {
      "inputs": [
        {
          "internalType": "string",
          "name": "tokenId",
          "type": "string"
        },
        {
          "internalType": "address",
          "name": "receiver",
          "type": "address"
        },
        {
          "internalType": "uint256",
          "name": "amount",
          "type": "uint256"
        },
        {
          "internalType": "string",
          "name": "ticketId",
          "type": "string"
        },
        {
          "internalType": "string",
          "name": "memo",
          "type": "string"
        }
      ],
      "name": "privilegedMintToken",
      "outputs": [],
      "stateMutability": "nonpayable",
      "type": "function"
    },
    {
      "inputs": [],
      "name": "proxiableUUID",
      "outputs": [
        {
          "internalType": "bytes32",
          "name": "",
          "type": "bytes32"
        }
      ],
      "stateMutability": "view",
      "type": "function"
    },
    {
      "inputs": [
        {
          "internalType": "string",
          "name": "tokenId",
          "type": "string"
        },
        {
          "internalType": "string",
          "name": "receiver",
          "type": "string"
        },
        {
          "internalType": "uint256",
          "name": "amount",
          "type": "uint256"
        }
      ],
      "name": "redeemToken",
      "outputs": [],
      "stateMutability": "payable",
      "type": "function"
    },
    {
      "inputs": [],
      "name": "renounceOwnership",
      "outputs": [],
      "stateMutability": "nonpayable",
      "type": "function"
    },
    {
      "inputs": [
        {
          "internalType": "string",
          "name": "",
          "type": "string"
        }
      ],
      "name": "targetChainFactor",
      "outputs": [
        {
          "internalType": "uint128",
          "name": "",
          "type": "uint128"
        }
      ],
      "stateMutability": "view",
      "type": "function"
    },
    {
      "inputs": [
        {
          "internalType": "string",
          "name": "",
          "type": "string"
        }
      ],
      "name": "tokens",
      "outputs": [
        {
          "internalType": "string",
          "name": "name",
          "type": "string"
        },
        {
          "internalType": "string",
          "name": "symbol",
          "type": "string"
        },
        {
          "internalType": "uint8",
          "name": "decimals",
          "type": "uint8"
        },
        {
          "internalType": "address",
          "name": "erc20ContractAddr",
          "type": "address"
        },
        {
          "internalType": "string",
          "name": "settlementChainId",
          "type": "string"
        }
      ],
      "stateMutability": "view",
      "type": "function"
    },
    {
      "inputs": [
        {
          "internalType": "address",
          "name": "newOwner",
          "type": "address"
        }
      ],
      "name": "transferOwnership",
      "outputs": [],
      "stateMutability": "nonpayable",
      "type": "function"
    },
    {
      "inputs": [
        {
          "internalType": "address",
          "name": "newTokenOwner",
          "type": "address"
        }
      ],
      "name": "transferTokensOwnership",
      "outputs": [],
      "stateMutability": "nonpayable",
      "type": "function"
    },
    {
      "inputs": [
        {
          "internalType": "string",
          "name": "dstChainId",
          "type": "string"
        },
        {
          "internalType": "string",
          "name": "tokenId",
          "type": "string"
        },
        {
          "internalType": "string",
          "name": "receiver",
          "type": "string"
        },
        {
          "internalType": "uint256",
          "name": "amount",
          "type": "uint256"
        },
        {
          "internalType": "string",
          "name": "memo",
          "type": "string"
        }
      ],
      "name": "transportToken",
      "outputs": [],
      "stateMutability": "payable",
      "type": "function"
    },
    {
      "inputs": [
        {
          "internalType": "string",
          "name": "tokenId",
          "type": "string"
        },
        {
          "internalType": "string",
          "name": "name_",
          "type": "string"
        }
      ],
      "name": "updateTokenName",
      "outputs": [],
      "stateMutability": "nonpayable",
      "type": "function"
    },
    {
      "inputs": [
        {
          "internalType": "string",
          "name": "tokenId",
          "type": "string"
        },
        {
          "internalType": "string",
          "name": "symbol_",
          "type": "string"
        }
      ],
      "name": "updateTokenSymbol",
      "outputs": [],
      "stateMutability": "nonpayable",
      "type": "function"
    },
    {
      "inputs": [
        {
          "internalType": "address",
          "name": "newImplementation",
          "type": "address"
        },
        {
          "internalType": "bytes",
          "name": "data",
          "type": "bytes"
        }
      ],
      "name": "upgradeToAndCall",
      "outputs": [],
      "stateMutability": "payable",
      "type": "function"
    }
  ],
  "bytecode": "0x60a06040523060805234801561001457600080fd5b506080516140b561003e600039600081816118e50152818161190f0152611b1a01526140b56000f3fe608060405260043610620001da5760003560e01c80635a4177e411620000ff578063ad3cb1cc1162000095578063cf522fad116200006c578063cf522fad14620005c4578063d990d1a514620005e9578063d9afa160146200060b578063f2fde38b146200063057600080fd5b8063ad3cb1cc146200053b578063bd7a2dba146200057d578063c4d66de8146200059f57600080fd5b806377b9104511620000d657806377b910451462000459578063809a3d9a146200047e5780638da5cb5b14620004c3578063a3524b71146200051657600080fd5b80635a4177e414620003e857806369b59e75146200041c578063715018a6146200044157600080fd5b806331abda2811620001755780634358c93c116200014c5780634358c93c146200038b5780634f1ef28614620003a2578063521280e214620003b957806352d1902d14620003d057600080fd5b806331abda28146200032a57806334b0937114620003415780633681495d146200036657600080fd5b80630cf3a6b611620001b65780630cf3a6b61462000280578063189ec27a146200029957806322f3e2d414620002be578063312e222c14620002eb57600080fd5b8062f55f4014620001df578063042763ad146200020a57806304c2320b1462000248575b600080fd5b348015620001ec57600080fd5b50620001f760015481565b6040519081526020015b60405180910390f35b3480156200021757600080fd5b506200022f62000229366004620023e9565b62000655565b6040516001600160801b03909116815260200162000201565b3480156200025557600080fd5b506200026d62000267366004620023e9565b620006a3565b604051620002019594939291906200247d565b6200029762000291366004620024e0565b6200089c565b005b348015620002a657600080fd5b5062000297620002b8366004620025a3565b620009f4565b348015620002cb57600080fd5b50600254620002da9060ff1681565b604051901515815260200162000201565b348015620002f857600080fd5b50620002da6200030a366004620023e9565b805160208183018101805160058252928201919093012091525460ff1681565b620002976200033b36600462002673565b62000a74565b3480156200034e57600080fd5b506200029762000360366004620026fc565b62000c70565b3480156200037357600080fd5b50620002976200038536600462002792565b62000dd9565b620002976200039c366004620027b2565b620010b0565b62000297620003b3366004620027fa565b620011dd565b62000297620003ca3660046200284f565b620011fe565b348015620003dd57600080fd5b50620001f76200138b565b348015620003f557600080fd5b50620002da62000407366004620028a6565b60066020526000908152604090205460ff1681565b3480156200042957600080fd5b50620002976200043b36600462002792565b620013ab565b3480156200044e57600080fd5b50620002976200142f565b3480156200046657600080fd5b506200029762000478366004620023e9565b62001447565b3480156200048b57600080fd5b506200022f6200049d366004620023e9565b80516020818301810180516007825292820191909301209152546001600160801b031681565b348015620004d057600080fd5b507f9016d09d72d40fdae2fd8ceac6b6234c7706214fd39c1cd1e609a0528c199300546001600160a01b03165b6040516001600160a01b03909116815260200162000201565b3480156200052357600080fd5b506200029762000535366004620028c0565b62001485565b3480156200054857600080fd5b506200056e604051806040016040528060058152602001640352e302e360dc1b81525081565b60405162000201919062002920565b3480156200058a57600080fd5b506008546200022f906001600160801b031681565b348015620005ac57600080fd5b5062000297620005be36600462002792565b6200154c565b348015620005d157600080fd5b5062000297620005e336600462002792565b620016e5565b348015620005f657600080fd5b50600054620004fd906001600160a01b031681565b3480156200061857600080fd5b50620002976200062a366004620028c0565b62001763565b3480156200063d57600080fd5b50620002976200064f36600462002792565b620017f5565b6008546040516000916001600160801b0316906007906200067890859062002935565b908152604051908190036020019020546200069d91906001600160801b031662002969565b92915050565b8051602081830181018051600382529282019190930120915280548190620006cb906200298f565b80601f0160208091040260200160405190810160405280929190818152602001828054620006f9906200298f565b80156200074a5780601f106200071e576101008083540402835291602001916200074a565b820191906000526020600020905b8154815290600101906020018083116200072c57829003601f168201915b50505050509080600101805462000761906200298f565b80601f01602080910402602001604051908101604052809291908181526020018280546200078f906200298f565b8015620007e05780601f10620007b457610100808354040283529160200191620007e0565b820191906000526020600020905b815481529060010190602001808311620007c257829003601f168201915b505050506002830154600384018054939460ff8316946101009093046001600160a01b031693509162000813906200298f565b80601f016020809104026020016040519081016040528092919081815260200182805462000841906200298f565b8015620008925780601f10620008665761010080835404028352916020019162000892565b820191906000526020600020905b8154815290600101906020018083116200087457829003601f168201915b5050505050905085565b60008211620008c85760405162461bcd60e51b8152600401620008bf90620029cb565b60405180910390fd5b6000835111620008ec5760405162461bcd60e51b8152600401620008bf9062002a0c565b620008f78562000655565b6001600160801b03163414620009215760405162461bcd60e51b8152600401620008bf9062002a4f565b60038460405162000933919062002935565b90815260405190819003602001812060020154632770a7eb60e21b8252336004830152602482018490526001600160a01b036101009091041690639dc29fac90604401600060405180830381600087803b1580156200099157600080fd5b505af1158015620009a6573d6000803e3d6000fd5b505050507f68531bac15564128bfb571d8710ffa266b7b82eb409040b4c0fe7eae2e2b0dfa858533868686604051620009e59695949392919062002a9c565b60405180910390a15050505050565b620009fe62001839565b60005b815181101562000a70576001600583838151811062000a245762000a2462002b06565b602002602001015160405162000a3b919062002935565b908152604051908190036020019020805491151560ff199092169190911790558062000a678162002b1c565b91505062000a01565b5050565b6000811162000a975760405162461bcd60e51b8152600401620008bf90620029cb565b600082511162000abb5760405162461bcd60e51b8152600401620008bf9062002a0c565b62000b7960038460405162000ad1919062002935565b9081526020016040518091039020600301805462000aef906200298f565b80601f016020809104026020016040519081016040528092919081815260200182805462000b1d906200298f565b801562000b6e5780601f1062000b425761010080835404028352916020019162000b6e565b820191906000526020600020905b81548152906001019060200180831162000b5057829003601f168201915b505050505062000655565b6001600160801b0316341462000ba35760405162461bcd60e51b8152600401620008bf9062002a4f565b60038360405162000bb5919062002935565b90815260405190819003602001812060020154632770a7eb60e21b8252336004830152602482018390526001600160a01b036101009091041690639dc29fac90604401600060405180830381600087803b15801562000c1357600080fd5b505af115801562000c28573d6000803e3d6000fd5b505050507f3ae5b52a5b9830dd7132320e97bb678e6dfac10e43b1a72e35cc3d9537af26e48333848460405162000c63949392919062002b38565b60405180910390a1505050565b62000c7a62001839565b60058260405162000c8c919062002935565b9081526040519081900360200190205460ff161562000ce25760405162461bcd60e51b81526020600482015260116024820152701d1a58dad95d081a5cc81a185b991b1959607a1b6044820152606401620008bf565b60038560405162000cf4919062002935565b908152604051908190036020018120600201546340c10f1960e01b82526001600160a01b0386811660048401526024830186905261010090910416906340c10f1990604401600060405180830381600087803b15801562000d5457600080fd5b505af115801562000d69573d6000803e3d6000fd5b50505050600160058360405162000d81919062002935565b908152604051908190036020018120805492151560ff19909316929092179091557f91985b1445c18e048e42c562eb5b933c54d757fea1ab76ada9b10fa0c3d20c0490620009e5908790879087908790879062002b82565b62000de362001839565b60005b60045481101562000a7057600060036004838154811062000e0b5762000e0b62002b06565b9060005260206000200160405162000e24919062002bd7565b90815260200160405180910390206040518060a001604052908160008201805462000e4f906200298f565b80601f016020809104026020016040519081016040528092919081815260200182805462000e7d906200298f565b801562000ece5780601f1062000ea25761010080835404028352916020019162000ece565b820191906000526020600020905b81548152906001019060200180831162000eb057829003601f168201915b5050505050815260200160018201805462000ee9906200298f565b80601f016020809104026020016040519081016040528092919081815260200182805462000f17906200298f565b801562000f685780601f1062000f3c5761010080835404028352916020019162000f68565b820191906000526020600020905b81548152906001019060200180831162000f4a57829003601f168201915b5050509183525050600282015460ff8116602083015261010090046001600160a01b0316604082015260038201805460609092019162000fa8906200298f565b80601f016020809104026020016040519081016040528092919081815260200182805462000fd6906200298f565b8015620010275780601f1062000ffb5761010080835404028352916020019162001027565b820191906000526020600020905b8154815290600101906020018083116200100957829003601f168201915b50505091909252505050606081015160405163f2fde38b60e01b81526001600160a01b038681166004830152929350909182169063f2fde38b90602401600060405180830381600087803b1580156200107f57600080fd5b505af115801562001094573d6000803e3d6000fd5b5050505050508080620010a79062002b1c565b91505062000de6565b60008111620010d35760405162461bcd60e51b8152600401620008bf90620029cb565b620010e960038360405162000ad1919062002935565b6001600160801b03163414620011135760405162461bcd60e51b8152600401620008bf9062002a4f565b60038260405162001125919062002935565b90815260405190819003602001812060020154632770a7eb60e21b8252336004830152602482018390526001600160a01b036101009091041690639dc29fac90604401600060405180830381600087803b1580156200118357600080fd5b505af115801562001198573d6000803e3d6000fd5b505050507f3ae5b52a5b9830dd7132320e97bb678e6dfac10e43b1a72e35cc3d9537af26e4823383604051620011d19392919062002c55565b60405180910390a15050565b620011e7620018da565b620011f28262001983565b62000a7082826200198d565b60006001600160a01b03166003836040516200121b919062002935565b908152604051908190036020019020600201546001600160a01b036101009091041603620012835760405162461bcd60e51b81526020600482015260146024820152731d1bdad95b9259081a5cc81b9bdd08195e1a5cdd60621b6044820152606401620008bf565b620012b5826040518060400160405280600e81526020016d426974636f696e2d72756e65732d60901b81525062001a59565b620013035760405162461bcd60e51b815260206004820152601760248201527f596f752063616e206d696e742072756e6573206f6e6c790000000000000000006044820152606401620008bf565b6200131960038360405162000ad1919062002935565b6001600160801b03163414620013435760405162461bcd60e51b8152600401620008bf9062002a4f565b806001600160a01b038116620013565750335b7facb56ec44f851e84483c00856a8eba9b729f90a9de50c9d7f17f15215570234783338360405162000c639392919062002ca3565b60006200139762001b0f565b506000805160206200406083398151915290565b620013b562001839565b60405147906001600160a01b0383169082156108fc029083906000818181858888f19350505050158015620013ee573d6000803e3d6000fd5b50604080516001600160a01b0384168152602081018390527f3d4c43d508d934cbaca9ae7143146f4eda5160f442573ccee9437decc9a3b8ba9101620011d1565b6200143962001839565b62001445600062001b59565b565b6200145162001839565b6000806000838060200190518101906200146c919062002d0e565b9250925092506200147f83838362001bca565b50505050565b6200148f62001839565b80600383604051620014a2919062002935565b90815260405190819003602001902090620014be908262002dcf565b50600382604051620014d1919062002935565b908152604051908190036020018120600201546384da92a760e01b82526001600160a01b0361010090910416906384da92a7906200151490849060040162002920565b600060405180830381600087803b1580156200152f57600080fd5b505af115801562001544573d6000803e3d6000fd5b505050505050565b7ff0c57e16840df040f15088dc2f81fe391c3923bec73e23a9662efc9c229c6a008054600160401b810460ff1615906001600160401b0316600081158015620015925750825b90506000826001600160401b03166001148015620015af5750303b155b905081158015620015be575080155b15620015dd5760405163f92ee8a960e01b815260040160405180910390fd5b845467ffffffffffffffff1916600117855583156200160857845460ff60401b1916600160401b1785555b6001600160a01b0386166200165a5760405162461bcd60e51b8152602060048201526017602482015276636861696e4b657941646472657373206973207a65726f60481b6044820152606401620008bf565b600080546001600160a01b0319166001600160a01b0388161790556002805460ff191660011790556200168d33620020a8565b62001697620020bd565b83156200154457845460ff60401b19168555604051600181527fc7f505b2f371ae2175ee4913f4499e1f2633a7b5936321eed1cdaeb6115181d29060200160405180910390a1505050505050565b620016ef62001839565b6001600160a01b038116620017415760405162461bcd60e51b8152602060048201526017602482015276636861696e4b657941646472657373206973207a65726f60481b6044820152606401620008bf565b600080546001600160a01b0319166001600160a01b0392909216919091179055565b6200176d62001839565b8060038360405162001780919062002935565b908152602001604051809103902060010190816200179f919062002dcf565b50600382604051620017b2919062002935565b908152604051908190036020018120600201546329bfa98960e11b82526001600160a01b03610100909104169063537f5312906200151490849060040162002920565b620017ff62001839565b6001600160a01b0381166200182b57604051631e4fbdf760e01b815260006004820152602401620008bf565b620018368162001b59565b50565b336200186c7f9016d09d72d40fdae2fd8ceac6b6234c7706214fd39c1cd1e609a0528c199300546001600160a01b031690565b6001600160a01b031614806200188c57506000546001600160a01b031633145b620014455760405162461bcd60e51b815260206004820181905260248201527f4f776e61626c653a2063616c6c6572206973206e6f7420746865206f776e65726044820152606401620008bf565b306001600160a01b037f00000000000000000000000000000000000000000000000000000000000000001614806200196457507f00000000000000000000000000000000000000000000000000000000000000006001600160a01b03166200195860008051602062004060833981519152546001600160a01b031690565b6001600160a01b031614155b15620014455760405163703e46dd60e11b815260040160405180910390fd5b6200183662001839565b816001600160a01b03166352d1902d6040518163ffffffff1660e01b8152600401602060405180830381865afa925050508015620019ea575060408051601f3d908101601f19168201909252620019e79181019062002e9b565b60015b62001a1457604051634c9c8ce360e01b81526001600160a01b0383166004820152602401620008bf565b60008051602062004060833981519152811462001a4857604051632a87526960e21b815260048101829052602401620008bf565b62001a548383620020c7565b505050565b8051825160009184918491101562001afb5760005b815181101562001aee5781818151811062001a8d5762001a8d62002b06565b602001015160f81c60f81b6001600160f81b03191683828151811062001ab75762001ab762002b06565b01602001516001600160f81b0319161462001ad957600093505050506200069d565b8062001ae58162002b1c565b91505062001a6e565b506001925050506200069d565b6000925050506200069d565b505092915050565b306001600160a01b037f00000000000000000000000000000000000000000000000000000000000000001614620014455760405163703e46dd60e11b815260040160405180910390fd5b7f9016d09d72d40fdae2fd8ceac6b6234c7706214fd39c1cd1e609a0528c19930080546001600160a01b031981166001600160a01b03848116918217845560405192169182907f8be0079c531659141344cd1fd0a4f28419497f9722a3daafe3b4186f6b6457e090600090a3505050565b60025460ff168062001bf05750600383600381111562001bee5762001bee62002eb5565b145b62001c3e5760405162461bcd60e51b815260206004820152601960248201527f436f6e747261637420697320756e616374697665206e6f7721000000000000006044820152606401620008bf565b60008281526006602052604090205460ff161562001c9f5760405162461bcd60e51b815260206004820152601a60248201527f64697265637469766520686164206265656e2068616e646c65640000000000006044820152606401620008bf565b600083600381111562001cb65762001cb662002eb5565b0362001f18576000806000806000808680602001905181019062001cdb919062002f12565b95509550955095509550955060006001600160a01b031660038660405162001d04919062002935565b908152604051908190036020019020600201546001600160a01b03610100909104161462001d6d5760405162461bcd60e51b8152602060048201526015602482015274323ab83634b1b0ba329034b9b9bab2903a37b5b2b760591b6044820152606401620008bf565b6001600160a01b03841662001dbe573083838360405162001d8e906200230c565b62001d9d949392919062002fef565b604051809103906000f08015801562001dba573d6000803e3d6000fd5b5093505b60006040518060a001604052808581526020018481526020018360ff168152602001866001600160a01b031681526020018881525090508060038760405162001e08919062002935565b9081526040519081900360200190208151819062001e27908262002dcf565b506020820151600182019062001e3e908262002dcf565b50604082015160028201805460608501516001600160a01b0316610100026001600160a81b031990911660ff909316929092179190911790556080820151600382019062001e8d908262002dcf565b5050600480546001810182556000919091527f8a35acfbc15ff81a39ae7d344fd709f28e8600b4aa8c65c6b64bfe7fe36bd19b01905062001ecf878262002dcf565b507f6d97a31531bdb3c43d920bc996ec8b9fd7733f5f55a81cd74700f88631fc6032868660405162001f039291906200303e565b60405180910390a15050505050505062002056565b600183600381111562001f2f5762001f2f62002eb5565b0362001ffe5760008060008380602001905181019062001f5091906200306a565b91945092509050600183600181111562001f6e5762001f6e62002eb5565b0362001f9557600880546001600160801b0319166001600160801b03831617905562001ff5565b600083600181111562001fac5762001fac62002eb5565b0362001ff5578060078360405162001fc5919062002935565b90815260405190819003602001902080546001600160801b03929092166001600160801b03199092169190911790555b50505062002056565b600283600381111562002015576200201562002eb5565b036200202b576002805460ff1916905562002056565b600383600381111562002042576200204262002eb5565b0362001a54576002805460ff191660011790555b60008281526006602052604090819020805460ff19166001908117909155839055517f475fd2879996e6d1627959bd967d8ad5af1545eb73a302af776ff1f8e68b5e9b9062000c639084815260200190565b620020b262002124565b62001836816200216e565b6200144562002124565b620020d28262002178565b6040516001600160a01b038316907fbc7cd75a20ee27fd9adebab32041f755214dbc6bffa90cc0225b39da2e5c2d3b90600090a28051156200211a5762001a548282620021e0565b62000a706200225c565b7ff0c57e16840df040f15088dc2f81fe391c3923bec73e23a9662efc9c229c6a0054600160401b900460ff166200144557604051631afcd79f60e31b815260040160405180910390fd5b620017ff62002124565b806001600160a01b03163b600003620021b057604051634c9c8ce360e01b81526001600160a01b0382166004820152602401620008bf565b6000805160206200406083398151915280546001600160a01b0319166001600160a01b0392909216919091179055565b6060600080846001600160a01b031684604051620021ff919062002935565b600060405180830381855af49150503d80600081146200223c576040519150601f19603f3d011682016040523d82523d6000602084013e62002241565b606091505b5091509150620022538583836200227c565b95945050505050565b3415620014455760405163b398979f60e01b815260040160405180910390fd5b60608262002295576200228f82620022e2565b620022db565b8151158015620022ad57506001600160a01b0384163b155b15620022d857604051639996b31560e01b81526001600160a01b0385166004820152602401620008bf565b50805b9392505050565b805115620022f35780518082602001fd5b604051630a12f52160e11b815260040160405180910390fd5b610f7b80620030e583390190565b634e487b7160e01b600052604160045260246000fd5b604051601f8201601f191681016001600160401b03811182821017156200235b576200235b6200231a565b604052919050565b60006001600160401b038211156200237f576200237f6200231a565b50601f01601f191660200190565b600082601f8301126200239f57600080fd5b8135620023b6620023b08262002363565b62002330565b818152846020838601011115620023cc57600080fd5b816020850160208301376000918101602001919091529392505050565b600060208284031215620023fc57600080fd5b81356001600160401b038111156200241357600080fd5b62002421848285016200238d565b949350505050565b60005b83811015620024465781810151838201526020016200242c565b50506000910152565b600081518084526200246981602086016020860162002429565b601f01601f19169290920160200192915050565b60a0815260006200249260a08301886200244f565b8281036020840152620024a681886200244f565b60ff871660408501526001600160a01b038616606085015283810360808501529050620024d481856200244f565b98975050505050505050565b600080600080600060a08688031215620024f957600080fd5b85356001600160401b03808211156200251157600080fd5b6200251f89838a016200238d565b965060208801359150808211156200253657600080fd5b6200254489838a016200238d565b955060408801359150808211156200255b57600080fd5b6200256989838a016200238d565b94506060880135935060808801359150808211156200258757600080fd5b5062002596888289016200238d565b9150509295509295909350565b60006020808385031215620025b757600080fd5b82356001600160401b0380821115620025cf57600080fd5b818501915085601f830112620025e457600080fd5b813581811115620025f957620025f96200231a565b8060051b6200260a85820162002330565b91825283810185019185810190898411156200262557600080fd5b86860192505b838310156200266657823585811115620026455760008081fd5b620026558b89838a01016200238d565b83525091860191908601906200262b565b9998505050505050505050565b6000806000606084860312156200268957600080fd5b83356001600160401b0380821115620026a157600080fd5b620026af878388016200238d565b94506020860135915080821115620026c657600080fd5b50620026d5868287016200238d565b925050604084013590509250925092565b6001600160a01b03811681146200183657600080fd5b600080600080600060a086880312156200271557600080fd5b85356001600160401b03808211156200272d57600080fd5b6200273b89838a016200238d565b9650602088013591506200274f82620026e6565b90945060408701359350606087013590808211156200276d57600080fd5b6200277b89838a016200238d565b935060808801359150808211156200258757600080fd5b600060208284031215620027a557600080fd5b8135620022db81620026e6565b60008060408385031215620027c657600080fd5b82356001600160401b03811115620027dd57600080fd5b620027eb858286016200238d565b95602094909401359450505050565b600080604083850312156200280e57600080fd5b82356200281b81620026e6565b915060208301356001600160401b038111156200283757600080fd5b62002845858286016200238d565b9150509250929050565b600080604083850312156200286357600080fd5b82356001600160401b038111156200287a57600080fd5b62002888858286016200238d565b92505060208301356200289b81620026e6565b809150509250929050565b600060208284031215620028b957600080fd5b5035919050565b60008060408385031215620028d457600080fd5b82356001600160401b0380821115620028ec57600080fd5b620028fa868387016200238d565b935060208501359150808211156200291157600080fd5b5062002845858286016200238d565b602081526000620022db60208301846200244f565b600082516200294981846020870162002429565b9190910192915050565b634e487b7160e01b600052601160045260246000fd5b6001600160801b0381811683821602808216919082811462001b075762001b0762002953565b600181811c90821680620029a457607f821691505b602082108103620029c557634e487b7160e01b600052602260045260246000fd5b50919050565b60208082526021908201527f74686520616d6f756e74206d757374206265206d6f7265207468616e207a65726040820152606f60f81b606082015260800190565b60208082526023908201527f7468652072656365697665722773206c656e6774682063616e2774206265207a60408201526265726f60e81b606082015260800190565b6020808252602d908201527f4465706f73697420666565206973206e6f7420657175616c20746f207468652060408201526c7472616e73706f72742066656560981b606082015260800190565b60c08152600062002ab160c08301896200244f565b828103602084015262002ac581896200244f565b6001600160a01b03881660408501528381036060850152905062002aea81876200244f565b905084608084015282810360a08401526200266681856200244f565b634e487b7160e01b600052603260045260246000fd5b60006001820162002b315762002b3162002953565b5060010190565b60808152600062002b4d60808301876200244f565b6001600160a01b0386166020840152828103604084015262002b7081866200244f565b91505082606083015295945050505050565b60a08152600062002b9760a08301886200244f565b6001600160a01b038716602084015260408301869052828103606084015262002bc181866200244f565b90508281036080840152620024d481856200244f565b600080835462002be7816200298f565b6001828116801562002c02576001811462002c185762002c49565b60ff198416875282151583028701945062002c49565b8760005260208060002060005b8581101562002c405781548a82015290840190820162002c25565b50505082870194505b50929695505050505050565b60808152600062002c6a60808301866200244f565b60018060a01b0385166020840152828103604084015260018152600360fc1b602082015260408101915050826060830152949350505050565b60608152600062002cb860608301866200244f565b6001600160a01b0394851660208401529290931660409091015292915050565b600062002ce9620023b08462002363565b905082815283838301111562002cfe57600080fd5b620022db83602083018462002429565b60008060006060848603121562002d2457600080fd5b83516004811062002d3457600080fd5b6020850151604086015191945092506001600160401b0381111562002d5857600080fd5b8401601f8101861362002d6a57600080fd5b62002d7b8682516020840162002cd8565b9150509250925092565b601f82111562001a5457600081815260208120601f850160051c8101602086101562002dae5750805b601f850160051c820191505b81811015620015445782815560010162002dba565b81516001600160401b0381111562002deb5762002deb6200231a565b62002e038162002dfc84546200298f565b8462002d85565b602080601f83116001811462002e3b576000841562002e225750858301515b600019600386901b1c1916600185901b17855562001544565b600085815260208120601f198616915b8281101562002e6c5788860151825594840194600190910190840162002e4b565b508582101562002e8b5787850151600019600388901b60f8161c191681555b5050505050600190811b01905550565b60006020828403121562002eae57600080fd5b5051919050565b634e487b7160e01b600052602160045260246000fd5b600082601f83011262002edd57600080fd5b620022db8383516020850162002cd8565b805162002efb81620026e6565b919050565b805160ff8116811462002efb57600080fd5b60008060008060008060c0878903121562002f2c57600080fd5b86516001600160401b038082111562002f4457600080fd5b62002f528a838b0162002ecb565b9750602089015191508082111562002f6957600080fd5b62002f778a838b0162002ecb565b965062002f8760408a0162002eee565b9550606089015191508082111562002f9e57600080fd5b62002fac8a838b0162002ecb565b9450608089015191508082111562002fc357600080fd5b5062002fd289828a0162002ecb565b92505062002fe360a0880162002f00565b90509295509295509295565b6001600160a01b038516815260806020820181905260009062003015908301866200244f565b82810360408401526200302981866200244f565b91505060ff8316606083015295945050505050565b6040815260006200305360408301856200244f565b905060018060a01b03831660208301529392505050565b6000806000606084860312156200308057600080fd5b8351600281106200309057600080fd5b60208501519093506001600160401b03811115620030ad57600080fd5b620030bb8682870162002ecb565b92505060408401516001600160801b0381168114620030d957600080fd5b80915050925092509256fe60806040523480156200001157600080fd5b5060405162000f7b38038062000f7b8339810160408190526200003491620001e9565b83838360036200004583826200031c565b5060046200005482826200031c565b5050506001600160a01b0381166200008657604051631e4fbdf760e01b81526000600482015260240160405180910390fd5b6200009181620000d2565b506005805460ff60a01b1916600160a01b60ff8416021790556007620000b883826200031c565b506006620000c784826200031c565b5050505050620003e8565b600580546001600160a01b038381166001600160a01b0319831681179093556040519116919082907f8be0079c531659141344cd1fd0a4f28419497f9722a3daafe3b4186f6b6457e090600090a35050565b634e487b7160e01b600052604160045260246000fd5b600082601f8301126200014c57600080fd5b81516001600160401b038082111562000169576200016962000124565b604051601f8301601f19908116603f0116810190828211818310171562000194576200019462000124565b81604052838152602092508683858801011115620001b157600080fd5b600091505b83821015620001d55785820183015181830184015290820190620001b6565b600093810190920192909252949350505050565b600080600080608085870312156200020057600080fd5b84516001600160a01b03811681146200021857600080fd5b60208601519094506001600160401b03808211156200023657600080fd5b62000244888389016200013a565b945060408701519150808211156200025b57600080fd5b506200026a878288016200013a565b925050606085015160ff811681146200028257600080fd5b939692955090935050565b600181811c90821680620002a257607f821691505b602082108103620002c357634e487b7160e01b600052602260045260246000fd5b50919050565b601f8211156200031757600081815260208120601f850160051c81016020861015620002f25750805b601f850160051c820191505b818110156200031357828155600101620002fe565b5050505b505050565b81516001600160401b0381111562000338576200033862000124565b62000350816200034984546200028d565b84620002c9565b602080601f8311600181146200038857600084156200036f5750858301515b600019600386901b1c1916600185901b17855562000313565b600085815260208120601f198616915b82811015620003b95788860151825594840194600190910190840162000398565b5085821015620003d85787850151600019600388901b60f8161c191681555b5050505050600190811b01905550565b610b8380620003f86000396000f3fe608060405234801561001057600080fd5b50600436106101005760003560e01c8063715018a6116100975780639dc29fac116100665780639dc29fac14610219578063a9059cbb1461022c578063dd62ed3e1461023f578063f2fde38b1461027857600080fd5b8063715018a6146101db57806384da92a7146101e35780638da5cb5b146101f657806395d89b411461021157600080fd5b8063313ce567116100d3578063313ce5671461016b57806340c10f191461018a578063537f53121461019f57806370a08231146101b257600080fd5b806306fdde0314610105578063095ea7b31461012357806318160ddd1461014657806323b872dd14610158575b600080fd5b61010d61028b565b60405161011a91906107f8565b60405180910390f35b610136610131366004610862565b61031d565b604051901515815260200161011a565b6002545b60405190815260200161011a565b61013661016636600461088c565b610337565b600554600160a01b900460ff1660405160ff909116815260200161011a565b61019d610198366004610862565b61035b565b005b61019d6101ad3660046108de565b610371565b61014a6101c036600461098f565b6001600160a01b031660009081526020819052604090205490565b61019d610385565b61019d6101f13660046108de565b610399565b6005546040516001600160a01b03909116815260200161011a565b61010d6103ad565b61019d610227366004610862565b6103bc565b61013661023a366004610862565b6103ce565b61014a61024d3660046109b1565b6001600160a01b03918216600090815260016020908152604080832093909416825291909152205490565b61019d61028636600461098f565b6103dc565b60606006805461029a906109e4565b80601f01602080910402602001604051908101604052809291908181526020018280546102c6906109e4565b80156103135780601f106102e857610100808354040283529160200191610313565b820191906000526020600020905b8154815290600101906020018083116102f657829003601f168201915b5050505050905090565b60003361032b81858561041f565b60019150505b92915050565b600033610345858285610431565b6103508585856104af565b506001949350505050565b61036361050e565b61036d828261053b565b5050565b61037961050e565b600761036d8282610a6c565b61038d61050e565b6103976000610571565b565b6103a161050e565b600661036d8282610a6c565b60606007805461029a906109e4565b6103c461050e565b61036d82826105c3565b60003361032b8185856104af565b6103e461050e565b6001600160a01b03811661041357604051631e4fbdf760e01b8152600060048201526024015b60405180910390fd5b61041c81610571565b50565b61042c83838360016105f9565b505050565b6001600160a01b0383811660009081526001602090815260408083209386168352929052205460001981146104a9578181101561049a57604051637dc7a0d960e11b81526001600160a01b0384166004820152602481018290526044810183905260640161040a565b6104a9848484840360006105f9565b50505050565b6001600160a01b0383166104d957604051634b637e8f60e11b81526000600482015260240161040a565b6001600160a01b0382166105035760405163ec442f0560e01b81526000600482015260240161040a565b61042c8383836106ce565b6005546001600160a01b031633146103975760405163118cdaa760e01b815233600482015260240161040a565b6001600160a01b0382166105655760405163ec442f0560e01b81526000600482015260240161040a565b61036d600083836106ce565b600580546001600160a01b038381166001600160a01b0319831681179093556040519116919082907f8be0079c531659141344cd1fd0a4f28419497f9722a3daafe3b4186f6b6457e090600090a35050565b6001600160a01b0382166105ed57604051634b637e8f60e11b81526000600482015260240161040a565b61036d826000836106ce565b6001600160a01b0384166106235760405163e602df0560e01b81526000600482015260240161040a565b6001600160a01b03831661064d57604051634a1406b160e11b81526000600482015260240161040a565b6001600160a01b03808516600090815260016020908152604080832093871683529290522082905580156104a957826001600160a01b0316846001600160a01b03167f8c5be1e5ebec7d5bd14f71427d1e84f3dd0314c0f7b2291e5b200ac8c7c3b925846040516106c091815260200190565b60405180910390a350505050565b6001600160a01b0383166106f95780600260008282546106ee9190610b2c565b9091555061076b9050565b6001600160a01b0383166000908152602081905260409020548181101561074c5760405163391434e360e21b81526001600160a01b0385166004820152602481018290526044810183905260640161040a565b6001600160a01b03841660009081526020819052604090209082900390555b6001600160a01b038216610787576002805482900390556107a6565b6001600160a01b03821660009081526020819052604090208054820190555b816001600160a01b0316836001600160a01b03167fddf252ad1be2c89b69c2b068fc378daa952ba7f163c4a11628f55a4df523b3ef836040516107eb91815260200190565b60405180910390a3505050565b600060208083528351808285015260005b8181101561082557858101830151858201604001528201610809565b506000604082860101526040601f19601f8301168501019250505092915050565b80356001600160a01b038116811461085d57600080fd5b919050565b6000806040838503121561087557600080fd5b61087e83610846565b946020939093013593505050565b6000806000606084860312156108a157600080fd5b6108aa84610846565b92506108b860208501610846565b9150604084013590509250925092565b634e487b7160e01b600052604160045260246000fd5b6000602082840312156108f057600080fd5b813567ffffffffffffffff8082111561090857600080fd5b818401915084601f83011261091c57600080fd5b81358181111561092e5761092e6108c8565b604051601f8201601f19908116603f01168101908382118183101715610956576109566108c8565b8160405282815287602084870101111561096f57600080fd5b826020860160208301376000928101602001929092525095945050505050565b6000602082840312156109a157600080fd5b6109aa82610846565b9392505050565b600080604083850312156109c457600080fd5b6109cd83610846565b91506109db60208401610846565b90509250929050565b600181811c908216806109f857607f821691505b602082108103610a1857634e487b7160e01b600052602260045260246000fd5b50919050565b601f82111561042c57600081815260208120601f850160051c81016020861015610a455750805b601f850160051c820191505b81811015610a6457828155600101610a51565b505050505050565b815167ffffffffffffffff811115610a8657610a866108c8565b610a9a81610a9484546109e4565b84610a1e565b602080601f831160018114610acf5760008415610ab75750858301515b600019600386901b1c1916600185901b178555610a64565b600085815260208120601f198616915b82811015610afe57888601518255948401946001909101908401610adf565b5085821015610b1c5787850151600019600388901b60f8161c191681555b5050505050600190811b01905550565b8082018082111561033157634e487b7160e01b600052601160045260246000fdfea26469706673582212205de143d3a32596cb15ea0f5ced47a1a39c6b537c9aa1473876583b88965a58f764736f6c63430008140033360894a13ba1a3210667c828492db98dca3e2076cc3735a920a3ca505d382bbca264697066735822122025c9604696dcf1e5f308cb5dc28d390c6540dcab242f8dd631c0180415ce8fcf64736f6c63430008140033",
  "linkReferences": {},
  "deployedLinkReferences": {}
}