{
  "_format": "hh-sol-artifact-1",
  "contractName": "TokenContract",
  "sourceName": "contracts/TokenContract.sol",
  "abi": [
    {
      "inputs": [
        {
          "internalType": "address",
          "name": "initialOwner",
          "type": "address"
        },
        {
          "internalType": "string",
          "name": "name_",
          "type": "string"
        },
        {
          "internalType": "string",
          "name": "symbol_",
          "type": "string"
        },
        {
          "internalType": "uint8",
          "name": "decimals_",
          "type": "uint8"
        }
      ],
      "stateMutability": "nonpayable",
      "type": "constructor"
    },
    {
      "inputs": [
        {
          "internalType": "address",
          "name": "spender",
          "type": "address"
        },
        {
          "internalType": "uint256",
          "name": "allowance",
          "type": "uint256"
        },
        {
          "internalType": "uint256",
          "name": "needed",
          "type": "uint256"
        }
      ],
      "name": "ERC20InsufficientAllowance",
      "type": "error"
    },
    {
      "inputs": [
        {
          "internalType": "address",
          "name": "sender",
          "type": "address"
        },
        {
          "internalType": "uint256",
          "name": "balance",
          "type": "uint256"
        },
        {
          "internalType": "uint256",
          "name": "needed",
          "type": "uint256"
        }
      ],
      "name": "ERC20InsufficientBalance",
      "type": "error"
    },
    {
      "inputs": [
        {
          "internalType": "address",
          "name": "approver",
          "type": "address"
        }
      ],
      "name": "ERC20InvalidApprover",
      "type": "error"
    },
    {
      "inputs": [
        {
          "internalType": "address",
          "name": "receiver",
          "type": "address"
        }
      ],
      "name": "ERC20InvalidReceiver",
      "type": "error"
    },
    {
      "inputs": [
        {
          "internalType": "address",
          "name": "sender",
          "type": "address"
        }
      ],
      "name": "ERC20InvalidSender",
      "type": "error"
    },
    {
      "inputs": [
        {
          "internalType": "address",
          "name": "spender",
          "type": "address"
        }
      ],
      "name": "ERC20InvalidSpender",
      "type": "error"
    },
    {
      "inputs": [
        {
          "internalType": "address",
          "name": "owner",
          "type": "address"
        }
      ],
      "name": "OwnableInvalidOwner",
      "type": "error"
    },
    {
      "inputs": [
        {
          "internalType": "address",
          "name": "account",
          "type": "address"
        }
      ],
      "name": "OwnableUnauthorizedAccount",
      "type": "error"
    },
    {
      "anonymous": false,
      "inputs": [
        {
          "indexed": true,
          "internalType": "address",
          "name": "owner",
          "type": "address"
        },
        {
          "indexed": true,
          "internalType": "address",
          "name": "spender",
          "type": "address"
        },
        {
          "indexed": false,
          "internalType": "uint256",
          "name": "value",
          "type": "uint256"
        }
      ],
      "name": "Approval",
      "type": "event"
    },
    {
      "anonymous": false,
      "inputs": [
        {
          "indexed": true,
          "internalType": "address",
          "name": "previousOwner",
          "type": "address"
        },
        {
          "indexed": true,
          "internalType": "address",
          "name": "newOwner",
          "type": "address"
        }
      ],
      "name": "OwnershipTransferred",
      "type": "event"
    },
    {
      "anonymous": false,
      "inputs": [
        {
          "indexed": true,
          "internalType": "address",
          "name": "from",
          "type": "address"
        },
        {
          "indexed": true,
          "internalType": "address",
          "name": "to",
          "type": "address"
        },
        {
          "indexed": false,
          "internalType": "uint256",
          "name": "value",
          "type": "uint256"
        }
      ],
      "name": "Transfer",
      "type": "event"
    },
    {
      "inputs": [
        {
          "internalType": "address",
          "name": "owner",
          "type": "address"
        },
        {
          "internalType": "address",
          "name": "spender",
          "type": "address"
        }
      ],
      "name": "allowance",
      "outputs": [
        {
          "internalType": "uint256",
          "name": "",
          "type": "uint256"
        }
      ],
      "stateMutability": "view",
      "type": "function"
    },
    {
      "inputs": [
        {
          "internalType": "address",
          "name": "spender",
          "type": "address"
        },
        {
          "internalType": "uint256",
          "name": "value",
          "type": "uint256"
        }
      ],
      "name": "approve",
      "outputs": [
        {
          "internalType": "bool",
          "name": "",
          "type": "bool"
        }
      ],
      "stateMutability": "nonpayable",
      "type": "function"
    },
    {
      "inputs": [
        {
          "internalType": "address",
          "name": "account",
          "type": "address"
        }
      ],
      "name": "balanceOf",
      "outputs": [
        {
          "internalType": "uint256",
          "name": "",
          "type": "uint256"
        }
      ],
      "stateMutability": "view",
      "type": "function"
    },
    {
      "inputs": [
        {
          "internalType": "address",
          "name": "owner",
          "type": "address"
        },
        {
          "internalType": "uint256",
          "name": "amount",
          "type": "uint256"
        }
      ],
      "name": "burn",
      "outputs": [],
      "stateMutability": "nonpayable",
      "type": "function"
    },
    {
      "inputs": [],
      "name": "decimals",
      "outputs": [
        {
          "internalType": "uint8",
          "name": "",
          "type": "uint8"
        }
      ],
      "stateMutability": "view",
      "type": "function"
    },
    {
      "inputs": [
        {
          "internalType": "address",
          "name": "receiver",
          "type": "address"
        },
        {
          "internalType": "uint256",
          "name": "amount",
          "type": "uint256"
        }
      ],
      "name": "mint",
      "outputs": [],
      "stateMutability": "nonpayable",
      "type": "function"
    },
    {
      "inputs": [],
      "name": "name",
      "outputs": [
        {
          "internalType": "string",
          "name": "",
          "type": "string"
        }
      ],
      "stateMutability": "view",
      "type": "function"
    },
    {
      "inputs": [],
      "name": "owner",
      "outputs": [
        {
          "internalType": "address",
          "name": "",
          "type": "address"
        }
      ],
      "stateMutability": "view",
      "type": "function"
    },
    {
      "inputs": [],
      "name": "renounceOwnership",
      "outputs": [],
      "stateMutability": "nonpayable",
      "type": "function"
    },
    {
      "inputs": [],
      "name": "symbol",
      "outputs": [
        {
          "internalType": "string",
          "name": "",
          "type": "string"
        }
      ],
      "stateMutability": "view",
      "type": "function"
    },
    {
      "inputs": [],
      "name": "totalSupply",
      "outputs": [
        {
          "internalType": "uint256",
          "name": "",
          "type": "uint256"
        }
      ],
      "stateMutability": "view",
      "type": "function"
    },
    {
      "inputs": [
        {
          "internalType": "address",
          "name": "to",
          "type": "address"
        },
        {
          "internalType": "uint256",
          "name": "value",
          "type": "uint256"
        }
      ],
      "name": "transfer",
      "outputs": [
        {
          "internalType": "bool",
          "name": "",
          "type": "bool"
        }
      ],
      "stateMutability": "nonpayable",
      "type": "function"
    },
    {
      "inputs": [
        {
          "internalType": "address",
          "name": "from",
          "type": "address"
        },
        {
          "internalType": "address",
          "name": "to",
          "type": "address"
        },
        {
          "internalType": "uint256",
          "name": "value",
          "type": "uint256"
        }
      ],
      "name": "transferFrom",
      "outputs": [
        {
          "internalType": "bool",
          "name": "",
          "type": "bool"
        }
      ],
      "stateMutability": "nonpayable",
      "type": "function"
    },
    {
      "inputs": [
        {
          "internalType": "address",
          "name": "newOwner",
          "type": "address"
        }
      ],
      "name": "transferOwnership",
      "outputs": [],
      "stateMutability": "nonpayable",
      "type": "function"
    },
    {
      "inputs": [
        {
          "internalType": "string",
          "name": "name_",
          "type": "string"
        }
      ],
      "name": "updateName",
      "outputs": [],
      "stateMutability": "nonpayable",
      "type": "function"
    },
    {
      "inputs": [
        {
          "internalType": "string",
          "name": "symbol_",
          "type": "string"
        }
      ],
      "name": "updateSymbol",
      "outputs": [],
      "stateMutability": "nonpayable",
      "type": "function"
    }
  ],
  "bytecode": "0x60806040523480156200001157600080fd5b5060405162000f7b38038062000f7b8339810160408190526200003491620001e9565b83838360036200004583826200031c565b5060046200005482826200031c565b5050506001600160a01b0381166200008657604051631e4fbdf760e01b81526000600482015260240160405180910390fd5b6200009181620000d2565b506005805460ff60a01b1916600160a01b60ff8416021790556007620000b883826200031c565b506006620000c784826200031c565b5050505050620003e8565b600580546001600160a01b038381166001600160a01b0319831681179093556040519116919082907f8be0079c531659141344cd1fd0a4f28419497f9722a3daafe3b4186f6b6457e090600090a35050565b634e487b7160e01b600052604160045260246000fd5b600082601f8301126200014c57600080fd5b81516001600160401b038082111562000169576200016962000124565b604051601f8301601f19908116603f0116810190828211818310171562000194576200019462000124565b81604052838152602092508683858801011115620001b157600080fd5b600091505b83821015620001d55785820183015181830184015290820190620001b6565b600093810190920192909252949350505050565b600080600080608085870312156200020057600080fd5b84516001600160a01b03811681146200021857600080fd5b60208601519094506001600160401b03808211156200023657600080fd5b62000244888389016200013a565b945060408701519150808211156200025b57600080fd5b506200026a878288016200013a565b925050606085015160ff811681146200028257600080fd5b939692955090935050565b600181811c90821680620002a257607f821691505b602082108103620002c357634e487b7160e01b600052602260045260246000fd5b50919050565b601f8211156200031757600081815260208120601f850160051c81016020861015620002f25750805b601f850160051c820191505b818110156200031357828155600101620002fe565b5050505b505050565b81516001600160401b0381111562000338576200033862000124565b62000350816200034984546200028d565b84620002c9565b602080601f8311600181146200038857600084156200036f5750858301515b600019600386901b1c1916600185901b17855562000313565b600085815260208120601f198616915b82811015620003b95788860151825594840194600190910190840162000398565b5085821015620003d85787850151600019600388901b60f8161c191681555b5050505050600190811b01905550565b610b8380620003f86000396000f3fe608060405234801561001057600080fd5b50600436106101005760003560e01c8063715018a6116100975780639dc29fac116100665780639dc29fac14610219578063a9059cbb1461022c578063dd62ed3e1461023f578063f2fde38b1461027857600080fd5b8063715018a6146101db57806384da92a7146101e35780638da5cb5b146101f657806395d89b411461021157600080fd5b8063313ce567116100d3578063313ce5671461016b57806340c10f191461018a578063537f53121461019f57806370a08231146101b257600080fd5b806306fdde0314610105578063095ea7b31461012357806318160ddd1461014657806323b872dd14610158575b600080fd5b61010d61028b565b60405161011a91906107f8565b60405180910390f35b610136610131366004610862565b61031d565b604051901515815260200161011a565b6002545b60405190815260200161011a565b61013661016636600461088c565b610337565b600554600160a01b900460ff1660405160ff909116815260200161011a565b61019d610198366004610862565b61035b565b005b61019d6101ad3660046108de565b610371565b61014a6101c036600461098f565b6001600160a01b031660009081526020819052604090205490565b61019d610385565b61019d6101f13660046108de565b610399565b6005546040516001600160a01b03909116815260200161011a565b61010d6103ad565b61019d610227366004610862565b6103bc565b61013661023a366004610862565b6103ce565b61014a61024d3660046109b1565b6001600160a01b03918216600090815260016020908152604080832093909416825291909152205490565b61019d61028636600461098f565b6103dc565b60606006805461029a906109e4565b80601f01602080910402602001604051908101604052809291908181526020018280546102c6906109e4565b80156103135780601f106102e857610100808354040283529160200191610313565b820191906000526020600020905b8154815290600101906020018083116102f657829003601f168201915b5050505050905090565b60003361032b81858561041f565b60019150505b92915050565b600033610345858285610431565b6103508585856104af565b506001949350505050565b61036361050e565b61036d828261053b565b5050565b61037961050e565b600761036d8282610a6c565b61038d61050e565b6103976000610571565b565b6103a161050e565b600661036d8282610a6c565b60606007805461029a906109e4565b6103c461050e565b61036d82826105c3565b60003361032b8185856104af565b6103e461050e565b6001600160a01b03811661041357604051631e4fbdf760e01b8152600060048201526024015b60405180910390fd5b61041c81610571565b50565b61042c83838360016105f9565b505050565b6001600160a01b0383811660009081526001602090815260408083209386168352929052205460001981146104a9578181101561049a57604051637dc7a0d960e11b81526001600160a01b0384166004820152602481018290526044810183905260640161040a565b6104a9848484840360006105f9565b50505050565b6001600160a01b0383166104d957604051634b637e8f60e11b81526000600482015260240161040a565b6001600160a01b0382166105035760405163ec442f0560e01b81526000600482015260240161040a565b61042c8383836106ce565b6005546001600160a01b031633146103975760405163118cdaa760e01b815233600482015260240161040a565b6001600160a01b0382166105655760405163ec442f0560e01b81526000600482015260240161040a565b61036d600083836106ce565b600580546001600160a01b038381166001600160a01b0319831681179093556040519116919082907f8be0079c531659141344cd1fd0a4f28419497f9722a3daafe3b4186f6b6457e090600090a35050565b6001600160a01b0382166105ed57604051634b637e8f60e11b81526000600482015260240161040a565b61036d826000836106ce565b6001600160a01b0384166106235760405163e602df0560e01b81526000600482015260240161040a565b6001600160a01b03831661064d57604051634a1406b160e11b81526000600482015260240161040a565b6001600160a01b03808516600090815260016020908152604080832093871683529290522082905580156104a957826001600160a01b0316846001600160a01b03167f8c5be1e5ebec7d5bd14f71427d1e84f3dd0314c0f7b2291e5b200ac8c7c3b925846040516106c091815260200190565b60405180910390a350505050565b6001600160a01b0383166106f95780600260008282546106ee9190610b2c565b9091555061076b9050565b6001600160a01b0383166000908152602081905260409020548181101561074c5760405163391434e360e21b81526001600160a01b0385166004820152602481018290526044810183905260640161040a565b6001600160a01b03841660009081526020819052604090209082900390555b6001600160a01b038216610787576002805482900390556107a6565b6001600160a01b03821660009081526020819052604090208054820190555b816001600160a01b0316836001600160a01b03167fddf252ad1be2c89b69c2b068fc378daa952ba7f163c4a11628f55a4df523b3ef836040516107eb91815260200190565b60405180910390a3505050565b600060208083528351808285015260005b8181101561082557858101830151858201604001528201610809565b506000604082860101526040601f19601f8301168501019250505092915050565b80356001600160a01b038116811461085d57600080fd5b919050565b6000806040838503121561087557600080fd5b61087e83610846565b946020939093013593505050565b6000806000606084860312156108a157600080fd5b6108aa84610846565b92506108b860208501610846565b9150604084013590509250925092565b634e487b7160e01b600052604160045260246000fd5b6000602082840312156108f057600080fd5b813567ffffffffffffffff8082111561090857600080fd5b818401915084601f83011261091c57600080fd5b81358181111561092e5761092e6108c8565b604051601f8201601f19908116603f01168101908382118183101715610956576109566108c8565b8160405282815287602084870101111561096f57600080fd5b826020860160208301376000928101602001929092525095945050505050565b6000602082840312156109a157600080fd5b6109aa82610846565b9392505050565b600080604083850312156109c457600080fd5b6109cd83610846565b91506109db60208401610846565b90509250929050565b600181811c908216806109f857607f821691505b602082108103610a1857634e487b7160e01b600052602260045260246000fd5b50919050565b601f82111561042c57600081815260208120601f850160051c81016020861015610a455750805b601f850160051c820191505b81811015610a6457828155600101610a51565b505050505050565b815167ffffffffffffffff811115610a8657610a866108c8565b610a9a81610a9484546109e4565b84610a1e565b602080601f831160018114610acf5760008415610ab75750858301515b600019600386901b1c1916600185901b178555610a64565b600085815260208120601f198616915b82811015610afe57888601518255948401946001909101908401610adf565b5085821015610b1c5787850151600019600388901b60f8161c191681555b5050505050600190811b01905550565b8082018082111561033157634e487b7160e01b600052601160045260246000fdfea26469706673582212205de143d3a32596cb15ea0f5ced47a1a39c6b537c9aa1473876583b88965a58f764736f6c63430008140033",
  "linkReferences": {},
  "deployedLinkReferences": {}
}